:020000040800F2
:10000000D04A002001010008EB2A0008C92400089A
:10001000E92A0008D91C000841420008000000003D
:100020000000000000000000000000008140000807
:10003000C91E000800000000F72E000885400008D7
:100040001B0100081B0100081B0100081B01000820
:100050001B0100081B0100081B0100081B01000810
:100060001B0100081B0100081B0100081B01000800
:100070001B0100081B0100081B0100081B010008F0
:100080001B0100081B0100081B0100081B010008E0
:100090001B0100081B0100081B0100081B010008D0
:1000A0001B0100081B0100081B0100081B010008C0
:1000B0001B0100081B0100081B0100081B010008B0
:1000C0001B0100081B0100081B0100081B010008A0
:1000D0001B0100081D4200082942000835420008A3
:1000E0001B0100081B0100081B010008DFF80CD0F1
:1000F00000F044FB004800475D840008D04A00201F
:100100000648804706480047FEE7FEE7FEE7FEE7B1
:10011000FEE7FEE7FEE7FEE7FEE7FEE791400008A8
:10012000ED00000800487047A4A3000810B504467D
:10013000FFF7F8FF0068005D00F0010010BD30B56A
:1001400005462A460B4612F8010B13F8014B08B17D
:10015000A042F8D01CB1002802D06D1CF1E728465F
:1001600030BD10B5044604E00B7800F8013B03B144
:10017000491C521EF8D2204610BDCAB2401E10F8CB
:10018000011F8A4202D00029F9D100207047421C89
:1001900010F8011B0029FBD1801A704710B500220E
:1001A00000E0521C835C8C5CA34201D1002BF8D18F
:1001B000D8B2E1B2401A10BD30B504460020034663
:1001C00000E05B1C934203D2E05CCD5C401BF8D0A6
:1001D00030BD034611F8012B00F8012B002AF9D19C
:1001E0001846704730B505460020034600E05B1C0A
:1001F000934205D2EC5CC85C201A01D1002CF6D1E8
:1002000030BD00F09BB830B50B46014600202022DF
:10021000012409E021FA02F59D4205D303FA02F513
:10022000491B04FA02F52844151EA2F10102F1DC73
:1002300030BD2DE9F05F0546002092469B4688467A
:100240000646814640241BE0284641464746224652
:1002500000F0B5FA53465A46C01A914110D31146E0
:100260001846224600F09CFA2D1A67EB01084F460B
:1002700022460120002100F093FA17EB00094E41BD
:10028000201EA4F10104DFDC484631462A464346DD
:10029000BDE8F09F0FB40B0010B58AB00FA9009114
:1002A0000E994FF00004234ACC60214CCDE9064260
:1002B00000D004236FF00042CDE901321E4A0892BB
:1002C00002466B46002000F031FB0AB010BC5DF81E
:1002D00014FBF0B585B007464FF0FF300091CDE933
:1002E00001011E46002015460C4604903B466A4616
:1002F000314604A8FFF7CEFF04990346601825B1E4
:1003000009B1024600E022462A6000290ED0002BE7
:1003100002DD0099814209D00094001BCDE901045F
:100320003B466A46314604A8FFF7B4FF05B0F0BD6E
:10033000650B0008830B00082D0100082DE9F0472C
:1003400091460E4680460446002514F8017B2FB1E5
:10035000FFF7E8FE0068C05DC007F6D12B2F02D082
:100360002D2F1ED0641E4A463146204600F01AFC4E
:1003700026B13268A24201D1C6F800806A054FF06A
:10038000020418D50023D0EB030563EB01025D1BCB
:10039000934109DB0023D0EB030063EB0101BDE8CF
:1003A000F08745F48065DEE709F09CFA04600020E0
:1003B0004FF00041F3E7021E71F10002EFDA09F09D
:1003C00091FA04604FF0FF304108E8E72DE9FE4F55
:1003D000804681EA0300C00F0C46009021F00041E6
:1003E00023F00045B8EB0200A94105D24046214662
:1003F00090461C460B46024623F00040104347D06F
:10040000270DC7F30A00C3F30A510290401A019066
:1004100040286BDAC3F3130040F4801B0098924627
:1004200020B10023D2EB030A63EB0B0B0198594672
:10043000C0F14002504600F0B3F906460D46504662
:100440005946019A00F0CBF910EB080061410024F5
:1004500087EA115284EAE7731A4340D0009A62B3E4
:10046000019A012A4FEA075215DC001B61EB0201D9
:100470004FF0004202EA0752CDE90042001C41F56C
:10048000801132462B4600F0FDFB03B0BDE8F08F33
:1004900040462146F9E7001B61EB0201001C41F5D3
:1004A000801300185B412018A2F5001747EB0301E9
:1004B00040EAD570B6196D4111E06D084FEA360675
:1004C00045EAC0754FEA0752001B61EB0201001CB0
:1004D00041F5801149084FEA300000195141324678
:1004E0002B4603B0BDE8F04F00F0BDBB00980122E1
:1004F00040000023D0EB020263EBE073009821463A
:100500004FEAE074B8EB000061EB0401E9E783F027
:1005100000435BE781F0004158E72DE9FE4F81EA97
:10052000030404F0004421F0004100944FF0000B5C
:1005300023F0004350EA01045ED052EA03045BD08A
:10054000C3F30A54C1F30A552C44A4F2F3340194C2
:10055000A0FB0254C1F3130141F48011C3F3130350
:1005600043F4801301FB024400FB034E840A970A04
:1005700044EA815447EA8357A4FB076802958D0A31
:1005800005FB07854FEA932C04FB0C542705029DBD
:100590004FEA065847EA1637B5EB08056EEB070C2D
:1005A000870E920E47EA811742EA8312A7FB0201E7
:1005B000B6EB0B0164EB00042B0D43EA0C335E1821
:1005C00044EB1C50DA465146E7FB0201C5F3130425
:1005D0004FEA0B3343EA14534FEA0432019C43EAD7
:1005E0000603A4F10C040294009CCDE900B400F0D1
:1005F00049FB03B0BDE8F08F00200146F9E72DE983
:10060000F04D81EA030404F0004B21F0004514464C
:100610004FF0000A23F0004150EA050220D054EACE
:1006200001021DD0C5F30A570246C5F31303C1F3F7
:100630001300C1F30A5640F4801543F48013A7EB6E
:100640000608101BD64608F2FD3873EB050002D3EE
:1006500008F1010801E092185B41B8F1000F03DADC
:1006600000200146BDE8F08D00204FF480110646C1
:1006700084460EE0171B73EB050705D3121B63EBD3
:10068000050306434CEA010C49084FEA3000921872
:100690005B4150EA0107EDD152EA030012D082EA31
:1006A000040083EA0501084305D0101BAB4106D2C4
:1006B0000122002306E000224FF0004302E06FF029
:1006C000010253101AEB06004CEB085110EB0A0024
:1006D00041EB0B01BDE8F04D00F0C5BA70B5C1F3B8
:1006E0000A5201F000450024C1F3130140F2FF3328
:1006F00041F480119A4201DA002070BD40F2334388
:100700009A42A2F2334203DC524200F058F800E071
:1007100090402C43F1D0404270BDC1F30A52C1F366
:10072000130140F2FF3341F480119A4202DA0020B3
:100730000146704740F233439A42A2F2334202DC50
:10074000524200F03CB800F02BB8000030B5041E57
:1007500071F1000404DB4FF00044404264EB0101FE
:10076000141E73F1000405DB1C464FF00043524297
:1007700063EB0403994208BF904230BD064C074D1D
:1007800006E0E06840F0010394E807009847103461
:10079000AC42F6D3FFF7AEFCF4B8000814B9000879
:1007A000202A04DB203A00FA02F100207047914031
:1007B000C2F1200320FA03F3194390407047202A26
:1007C00004DB203A21FA02F00021704721FA02F3FB
:1007D000D040C2F120029140084319467047202AB8
:1007E00006DBCB17203A41FA02F043EAE07306E059
:1007F00041FA02F3D040C2F1200291400843194669
:10080000704700002DE9FF4F087883B09946FF2814
:1008100005D0491C2D2804D00024002008E0002029
:100820000BE00124F9E700EB800003EB4000491CDA
:100830000B78FF2BF7D104B14042002302931478C8
:1008400019461D462D2C01D02B2C04D1521C2D2CC9
:1008500013D000240294AA461478FF2C0FD00A2546
:10086000A3FB057801FB05814FF0000C03FB0C1185
:10087000521CE3194AEB0101EEE70124EAE7814447
:1008800053EA010002D019F5C87F06DA0398002167
:10089000C0E9001107B0BDE8F08F0025AE4E2F462D
:1008A000DFF8B882184600F056FACDE90001B9F138
:1008B000000002DAC9F1000400E004460023A74A60
:1008C0001AEB030B42EB045A12E0E00707D02A466A
:1008D000334638464146FFF720FE074688462A46FB
:1008E000334610461946FFF718FE05460E466410BB
:1008F000002CEAD1DDE90001B9F1000F5A46534658
:1009000006DAFFF77CFE3A464346FFF778FE05E03D
:10091000FFF703FE3A464346FFF7FFFD029A0AB18E
:1009200081F00041039AC2E90001B3E72DE9FF4FCE
:100930001F468DB0D7E901464FF0FF382E204546BF
:100940004FF000090B90B9696D1C0E988847396A01
:10095000824688470028F6D1BAF1FF3F0AD024F436
:10096000D064002E11DDBAF12B0F08D0BAF12D0F93
:100970000BD102E0404611B08DE744F48064B969C0
:100980006D1C0E9888478246761E6946600501D523
:100990002D2000E02B208DF8000001F1010B0DF15E
:1009A000200809E0B9696D1C0E98884782460F98A7
:1009B00044F40074761E0560002E02DDBAF1300F9B
:1009C000F0D00B998A453ED144F0800406E00F999F
:1009D000681CA9F1010944F400740860B9696D1C30
:1009E000761E0E98884782463028F0D02BE00B996F
:1009F0008A4505D1200603D444F08004761E18E011
:100A0000504609F09BF808B30DF11302761EAAF1C7
:100A1000300044F40074934506D20BF8010B200615
:100A200007D5A9F1010003E0200602D409F1010075
:100A30008146A00502D50F99681C0860B9696D1C34
:100A40000E9888478246002ED1DC53E0002E51DDFF
:100A5000BAF1650F02D0BAF1450F4BD1A00549D5C7
:100A6000B9696D1C24F44074761E0E98884782463E
:100A7000002E0CDD2B2804D0BAF12D0F07D144F441
:100A80008074B9696D1C0E9888478246761EE00511
:100A900001D52D2100E02B2108F8011BCDF82C8079
:100AA00021E00DF12901761E44F4007488450CD232
:100AB000AAF1300010F0FF0088F8000002D10B9975
:100AC000884509D908F1010806E0E00501D5244868
:100AD00001E042F20F708146B9696D1C0E9888479B
:100AE00082460F980560002E04DD504609F026F876
:100AF0000028D6D1F9690E988847FF208BF80000AE
:100B000088F800000020069007904B466A4608A926
:100B100006A8FFF777FEA00502D46FF001002AE7D0
:100B200014F0240F0AD0E00714D1DDE9061238686A
:100B3000031D3B600068C0E900120BE0DDE906011F
:100B400000F015F90146E00704D13868021D3A604B
:100B50000068016028460EE7000014400000F03FE6
:100B6000F1D8FFFF426842B1016811F8013B23B19F
:100B7000521EC0E90012184670470121C160881E4C
:100B8000704742685AB1C368016843B983688B42B1
:100B900005D0491E521CC0E90012002070474FF0DA
:100BA000FF3070472DE9F74F4FF00009009C1546C4
:100BB000CA4614F8010B302801D0ADB115E014F885
:100BC000010B4FF00109782803D0582801D04DB10E
:100BD0000BE00DB1102D08D14FF00009102514F8CD
:100BE000010B02E0082500E00A2500273E46B84632
:100BF0004FEAE57B16E0A5FB07230BFB073105FB5E
:100C0000080005FB0616030CD71846F100061FFA6C
:100C100080F8381E4FF0010976F5803000D3CA46BF
:100C200014F8010B294600F088F80028E3DA01984F
:100C300038B1B9F1000F01D0641E00E0009C0198AA
:100C40000460BAF1000F08D008F04CFE02210160E8
:100C5000C81E014603B0BDE8F08F310441EA1741D8
:100C600048EA0740F6E710B5141E73F1000408DAED
:100C7000401C41F1000192185B411A4301D120F060
:100C8000010010BD2DE9F04D92469B4611B1B1FA1D
:100C900081F202E0B0FA80F220329046FFF780FD48
:100CA00004460F4640EA0A0041EA0B0153465A4601
:100CB000084313D0114653EA010019D0C8F140028D
:100CC0005046FFF77CFD05460E46504659464246C3
:100CD000FFF766FD084305D0012004E020463946B1
:100CE000BDE8F08D0020054346EAE0762C4337430B
:100CF0000A986305E40AA0EB08000022FD0A44EA12
:100D000047540A3002D500200146E9E701051019D1
:100D10006941DDE9084500196941BDE8F04DA2E7E8
:100D20000EB540F2334102910021CDE900110A468F
:100D30000B46FFF7A7FF03B000BD3A2800D23038BA
:100D400020F02002412A01D3A2F13700884201D3CA
:100D50004FF0FF3070470EB540F23342029200224E
:100D6000CDE900221346FFF78DFF03B000BD01F06F
:100D7000004330B421F0004150EA010206D00A0DD0
:100D8000A2F56072C1F31301002A02DC30BC00201E
:100D90007047440F44EAC104C100E01830BC00EBC6
:100DA000C250AFF300800029A8BF7047401C490023
:100DB00008BF20F00100704710B4B0FA80FC00FAC0
:100DC0000CF050EA010404BF10BC704749B1CCF1EB
:100DD000200421FA04F411FA0CF118BF0121214377
:100DE0000843A3EB0C01CB1D4FEA00614FEA102032
:100DF00042BF002010BC704700EBC35010440029D4
:100E0000A4BF10BC7047401C490008BF20F001007F
:100E100010BC70472DE9F0410024061B254671F1F6
:100E2000000605DA01240027D0EB070067EB01017B
:100E3000161E73F1000605DA0027D2EB0702012522
:100E400067EB0303FFF7F5F986460E4617469C4607
:100E5000AC4204D00025D0EB050E65EB010624B1B1
:100E60000020D2EB000760EB030C704631463A4697
:100E70006346BDE8F08110B5431A934209D2831846
:100E8000881803E010F8011D03F8011D521EF9D265
:100E900010BD40EA01039B0703D009E008C9121FF7
:100EA00008C0042AFAD203E011F8013B00F8013B24
:100EB000521EF9D210BDD2B201E000F8012B491E3A
:100EC000FBD270470022F6E710B513460A460446E7
:100ED0001946FFF7F0FF204610BD30B5041E71F132
:100EE000000404DB4FF00044404264EB0101141E97
:100EF00073F1000405DB1C464FF00043524263EBE4
:100F00000403101A8B4101D2012030BD002030BDF6
:100F100030B5041E71F1000404DB4FF00044404280
:100F200064EB0101141E73F1000405DB1C464FF055
:100F30000043524263EB0403801A994101D201201D
:100F400030BD002030BD30B5041E71F1000404DB5B
:100F50004FF00044404264EB0101141E73F10004A1
:100F600005DB1C464FF00043524263EB0403424052
:100F70004B401A4301D0002030BD012030BDF0B4F9
:100F8000CA17CB0F50405140C61841F100054FEA37
:100F9000C372314628004FF0960303D0B623F0BC4D
:100FA000FFF70ABF30460021F9E73EB5CA17CB0F5D
:100FB000002450405140C0186141DA0740F23343E9
:100FC0000094CDE9012322462346FFF75BFE03B0E0
:100FD00030BD70B5C1F30A5201F000450024C1F3E1
:100FE000130140F2FF3341F480119A4202DA0020EB
:100FF000014670BD40F233439A42A2F2334203DC11
:101000005242FFF7DCFB01E0FFF7CAFB2C43F0D0B4
:101010000023D0EB030063EB010170BD00F0004240
:1010200030F000400AD0C10D01F56071C0F3160028
:1010300042EA0151C20840071143704700200146AF
:10104000704700002DE9FF411D461346DFF8388048
:1010500006460C4608460BA21946C04707463046CE
:1010600000F09CF841190DF1050007F065F9024602
:1010700020463946C047484A01462046C04704B08A
:10108000BDE8F08142000000119600082DE9F04F04
:1010900089B088463D499B460192049007F00EFFB7
:1010A000029001303A4F00214FEAE07A0591039017
:1010B0004046394607F002FF04460E460DF119007E
:1010C000214607F039F9621C05464046394646F18B
:1010D000000307F08BFF404601F0F3FE78B1049C5B
:1010E0002A49039A81465346204607F07FFF20464F
:1010F000494605AA5B46FFF7C9FF8346D8E705A81E
:101100004FF4807106F0BFFFDFF888A00746002586
:10111000B02D28D00AEB05094046D9F8081007F091
:10112000F7FEF0B15AF80530029A064699F80440E5
:10113000384606F003F9384606F024FE012C02D1A9
:10114000314606F06DFF144906F06AFF064606F0C8
:10115000A3FD024605A8594608F05AFA834601F055
:10116000BDFD1035D4E702980849421E0498D317F4
:1011700007F03CFF0198594608F079FA044605A8A3
:1011800004F03CFD204609B0BDE8F08FECB6000845
:1011900041B700086CA4000835B5000880B50249C5
:1011A00007F08CFE80BD00BFE0B60008014907F0E3
:1011B000AFBE00BF18B700082DE9F04FA7B000255B
:1011C0000990282288460B950BA808F0DEFADFF874
:1011D000002A03211A9500F08BFD04461AA804F09A
:1011E0000DFD002C42D0DFF8EC490DF12C0901F087
:1011F000A9FD834601F0A6FD1AAF0546384604F066
:1012000088FB384601F0B2FD01F021FEDFF8C0890D
:1012100000240026BDF86C00864222D201F011FEA7
:10122000E0B2012812D0C0B91F9C4146204608F008
:101230007BF918B19DF8780003280DD0484659462F
:10124000224608F0E5F98346002406E01F9A484646
:10125000294608F0DDF90546012401F0F5FD0136C7
:10126000D8E71AA800F039FDA846C0E0DFF86449C5
:10127000DFF864692046B04707462046B0478146FC
:101280002046B047DFF854298246404603210D9599
:10129000ADF8325000F02CFD10B12B258DF83250F6
:1012A000DFF83C2901F047FD10B12D258DF83250B3
:1012B000DFF8302901F03FFD10B12A258DF83250BA
:1012C000DFF8242901F037FD18B12F208DF8320006
:1012D00002E0002D00F06883CDF8289007971AAE41
:1012E000304604F016FB30464146CDF8208004F02D
:1012F00024FB304604F0FBFADFF8E848DFF8E87832
:10130000DFF8D8884FF000090025BDF86C00854251
:101310002AD2304600F024FDDDF87CB0214601F0F1
:101320004AFDA0B9584601F018FD80B9584641461B
:1013300008F0FAF858B9DFF8A81801F03CFD30B908
:10134000B9F1000F09D00A9801F096FD0A904FF00C
:10135000010901F079FD0135D7E7079801F08CFD0F
:1013600007904FF00009F4E71AA800F0B6FC079FB9
:10137000DFF878583846A847DFF8746801465046C9
:10138000B0470DF13201B047DFF86818B047DDF81B
:10139000289004464846A84701462046B047DFF853
:1013A0005818B04782463846A84704465046A847D2
:1013B000DDF82080054600260DA804F01FFC25B1AD
:1013C0000BA8294608F053F980462CB10BA82146FA
:1013D00008F04DF9834601E04FF0000BDFF81C48A0
:1013E0004846A0473846A0475046A04726B9DFF8F0
:1013F0001018099801F039FD002100200D91079087
:101400000DA84146CDF8208006F0EAFA1AAE04464F
:10141000304604F07EFA3046214604F08EFA30461B
:1014200004F065FA0020DFF82898DFF8F0474FF065
:1014300000084FF0000B00250490002003900020CE
:101440000190002000900020029000200A900020CF
:10145000059000200690BDF86C00854280F08480E5
:10146000304600F07DFCDDF87CA0494601F03CFCF4
:1014700010B14FF0010B54E0229801F0D5FC98B167
:101480009DF8780040F0040005280AD0DFF8C41762
:1014900001F02AFC28B9DFF8601701F025FC0121D2
:1014A00018B101200A903CE041468846504621464A
:1014B000274608F039F8BDF86E4020B1012C02D162
:1014C0004FF001082CE050460FF28C7108F02CF818
:1014D00030BB50460FF2847108F026F800BBDFF8ED
:1014E0003817504608F04FF820B1012C02D00120E7
:1014F000069015E0DFF82C1901F0F6FB10B1012081
:1015000005900DE09DF87840032C02D10120079052
:1015100006E0DFF8E01601F0E7FB30B101200490AF
:101520003C4601F091FC013595E7012C0BD0052CD0
:10153000F6D19AF800003C46222801D0272805D190
:1015400001200390EDE701200290E9E79AF80110ED
:10155000272901D0222904D1622802D1012001903B
:10156000DFE701200090DCE7BBF1000F39D01AA8BB
:1015700000F0B3FB0DA804F041FB089D01F091FBC6
:1015800001460BA806F07FFD044601F08AFB6A1EA7
:101590000021012808DB135C202B05D063540131A6
:1015A000135C0138202BF4D102204A1E002391FB4A
:1015B000F0F0834206DAE55CA65CE654A554013AF5
:1015C0000133F6E700206054DFF838160998224608
:1015D00007F042FD0BA804F011FB099827B0BDE805
:1015E000F08F0798002874D01AAD284600F075FBDC
:1015F0000DF1340A504604F001FB0BA8089906F0DF
:10160000EFF94FF0000B0146CDF834B00DA80A9168
:1016100000F05CFFDFF8F08506460024202C2BD07C
:10162000284604F076F92846314604F086F9284623
:1016300004F05DF904EBC4004FF0000908EB00076B
:10164000BDF86C00814512D2284600F089FB229833
:1016500001F083FB20B901F0F7FB09F10109EFE785
:101660005046394608F003F8834601F0EDFB284662
:1016700000F033FB0134D1E7DFF8901501F09BFB5C
:10168000002863D01AAD284604F043F90A9F284683
:10169000394604F052F9284604F029F9DFF86C6560
:1016A000DDF820800024BDF86C00844280F0A48026
:1016B000284600F055FB2298314607F035FF20B14F
:1016C0009DF87800032800F0908001F0BDFB013404
:1016D000E9E70698002800F06B811AAD284600F073
:1016E000FCFA0DA804F08AFA0BA8089907F0BFFFCE
:1016F0001AAE8046304604F00CF9304601F036FB55
:10170000304604F0F4F8DFF81065DFF81095002497
:101710000027BDF86C0087421CD2284600F020FB51
:101720001F98314607F02FFF60B13046494607F059
:10173000FBFE9DF9701008B9002903DC0129D8BF10
:101740009DF86E4001F080FB0137E2E7DDF8208074
:101750000A9F54E01AA800F0C0FADFF8785428462F
:1017600006F010FB0646284606F00CFB0DF1340986
:101770000546484604F0CDF8484601F0F7FA4846D9
:1017800004F0B5F80027BDF83800874215D2484666
:1017900000F0E6FABDF83A00A04204D2129901F036
:1017A000A0FA064604E01299284606F039FC0546E0
:1017B000179806F049FE0137E5E70DA800F08DFA0D
:1017C0000BAC3146204607F043FF0646204629462B
:1017D00007F03EFF099D04463146284600F042FAD4
:1017E00028462146FFF7E8FCF4E61F990DA807F00C
:1017F0003EFF834601F028FB1AA800F06EFADFF8DE
:10180000101401F0D8FA20B9DFF8001401F0D3FA6F
:10181000B0B30DF1680A504604F07BF850463946E3
:1018200004F08BF8504604F062F8DFF8E463DFF868
:10183000DC7300250DF13408BDF86C0085421AD226
:10184000504600F08DFA1F9C3146204607F06CFE92
:1018500020B14046314607F00AFF8346204601F09A
:101860007CFA20B14046394607F001FF834601F07B
:10187000EBFA0135E0E71AA800F02FFADDF8208036
:10188000BBF1000F3BD00BA8594607F0F0FE824693
:101890000DA804F0B3F9BAF1000F30D0DD49099872
:1018A000524607F0D9FB0BA8414607F0E0FEC94CB1
:1018B000804601F0E4FA814601F0E1FA1AAC834671
:1018C000204604F026F8204601F050FA204604F0A5
:1018D0000EF800270025BDF86C00874218D220467C
:1018E00000F03EFA9DF8700028B91F9901F0FCF94C
:1018F00008B19DF86E5001F0A7FA0137EBE70BA88D
:1019000004F07CF9099807F031FA0020099064E6A8
:101910001AAF384600F0E1F9384603F0FAFF3846CE
:1019200001F024FA01F093FA0024BDF86C0084421F
:1019300015D201F086FABDF86E60AE4204D21F994E
:10194000584606F06DFB8346AE4204D91F994846BF
:1019500006F066FB814601F077FA0134E5E71AA844
:1019600000F0BBF9484606F097F90446584606F0E1
:1019700093F901460BA807F07AFE074601F0ABF990
:10198000421C40462146FFF776FA01F091FA48469C
:1019900006F01CF9099C3946204600F063F9204600
:1019A000414600F05FF915E601260025002403E515
:1019B0000A98002840F0FA80B8F1000F40F0F68055
:1019C0000598002840F0F280049838B11AA800F079
:1019D00084F90DA804F012F9089C5EE00398089DB4
:1019E00048B38F4A01F003FA002849D11AA800F041
:1019F00074F90DA804F002F90BA8294607F037FE88
:101A0000441C054601F067F90021295420465C2159
:101A100001F06DF90DD00BAD82A283A321462846BB
:101A200007F0D8FE824B014680A2284607F0D2FE7E
:101A300004468049CAE50198C0B1794A01F0D7F956
:101A4000F0B91AA800F049F90DA804F0D7F80BACCA
:101A5000691C2722204607F02AFE01462046222242
:101A600007F025FE024674490998B1E50098002860
:101A700000F088806A4A01F0BAF9002800F09D80E1
:101A80001AA800F02AF90DA804F0B8F80BA86CA267
:101A900080212B4607F023FE04460BAD2146282269
:101AA000284607F072FE02466749099807F0D4FA03
:101AB000284621462822292307F0E5FDDFF860B1FA
:101AC000014628465A4607F0A3FDDFF808A105465F
:101AD0001AAF504606F056F90646504606F052F93F
:101AE00004464FF000093846CDF8349003F011FF5A
:101AF0003846294603F021FF01F0A9F94FF000080C
:101B0000BDF86C00804522D201F09BF9B9F1000FBD
:101B100006D01F9901F0C1F904464FF001090AE00F
:101B20009DF970001F9D01280ADB304601F04CF939
:101B300006464FF0000901F087F908F10108DFE7D8
:101B40002846594607F0F0FC0028E6D1EDE7384674
:101B500000F0C3F80DA804F051F80BAD314628464B
:101B600007F076FD06462846214607F071FD05463A
:101B70000998314600F076F8504601F022F9002825
:101B8000A7D027E5029888B1089D254A0421284658
:101B900000F0AEF804461AA800F09FF80DA804F073
:101BA0002DF8002C7FF472AF28490DE01AA800F040
:101BB00094F80DA804F022F80CE51AA800F08DF8AE
:101BC0000DA804F01BF81D4909982A4600E500BF3E
:101BD000D0B50008A8A30008857D0008C9B5000895
:101BE000CCB50008C6B50008CFB50008997C000840
:101BF000218000089CB500089FB50008CD7B000837
:101C0000E7B70008FEB70008CFAE0008A5B500088A
:101C1000A1B50008A9B70008A7B5000856B6000886
:101C2000A3B500085C220000220000005C27000031
:101C30009AB50008D1B60008C5B7000848B7000833
:101C400028257329000000006CB60008BFB6000804
:101C500091B5000858B600082E2E2E0070617373DF
:101C6000000000002DE9FE43DFF858908846054645
:101C7000494607F023F907460C460DF101003946A5
:101C800006F05AFB7A1C06462846494644F10003F2
:101C900007F0ACF90C4A2846314607F067F92846A8
:101CA000494607F00BF9411E0DF1010006F044FB17
:101CB0000146284607F017F9414603B0BDE8F04356
:101CC000FFF77ABA98B70008292C00080A4601499C
:101CD00007F0C2B918B70008FEE710B50446406A1D
:101CE00008B105F073FFE06ABDE8104006F0ACBB38
:101CF0002DE9FF410E46114690460546FEF71FFAB4
:101D0000002448B3019401A8294600F0DFFB0546F2
:101D1000039403AF3846294607F0A9FC02902846F1
:101D200002F0B8F9044602AD6CB13846294602F01B
:101D3000C3F90178B14204D10130414607F0F4FB08
:101D400008B9013CF0E703A803F058FF01A803F02D
:101D500055FF002C18BF0124204604B0BDE8F081D7
:101D6000B0B50446C0880130E08000F05FFF054652
:101D7000A062606A05F090FF0146284607F077FCF4
:101D8000E060A06A214602F097F9A061606A05F060
:101D90001DFFA06905F0F6FFE5686062A069494A89
:101DA00015F8011B2174002908BF1546656110F85C
:101DB000011B2177002908BF10461649206200F058
:101DC000BEFF10B1207A01302072134900F0B7FF36
:101DD00010B1207A01382072104900F0B0FF10B124
:101DE000207A013020720E4900F0A9FF10B1207A4C
:101DF000013820720B4900F0A2FF10B1207A0130A7
:101E00002072094900F09BFF10B1207A013820723E
:101E1000B0BD00BF9CB500089FB5000856B60008CD
:101E200058B6000828B800082AB800082DE9F04F75
:101E30008FB00DF1040A009000259B4616460C4613
:101E400050460E9503F065FD5046214603F075FDA2
:101E5000504603F04CFD1B4C0DF138094FF00008C3
:101E6000BDF8080080451ED25046FFF779FF069F57
:101E7000304600F072FF28B1280602D100F0CFFFF3
:101E800004460135584600F068FF002818BF013DA0
:101E9000280602D100F0C3FF04460B9806F0D4FADE
:101EA00008F10108DCE701A8FFF717FF00982146B9
:101EB00007F0DDFB04460EA803F0A0FE20460FB09D
:101EC000BDE8F08FA8A30008704700002DE9F84F87
:101ED000DDF828900D4607464FF480719B469046EA
:101EE000484606F0D0F8DDE90B4306464A46204650
:101EF0002146FFF7CBF88246304600223B4605F0EC
:101F00001DFA304605F03EFF0746E8B2022806D02B
:101F1000012808D12046414606F0FAFF834638469C
:101F200000F0AAFF07460849384606F079F800F0A5
:101F300045FF02464846514607F06AFB054600F059
:101F400053FF2846BDE8F88F35B500082DE9FC4F52
:101F50005C4A04234FF0000A4FF001084FF00F0EC7
:101F60004FF00009904208BF0323009300250C683E
:101F700034FA05F208BFBDE8FC8F08FA05F21442F6
:101F800000F09B804F68032F16D9112F24D0122FF9
:101F900026D0504B9F4213D04F4B9F4210D04F4BF7
:101FA0009F420DD04E4B9F420AD04E4B9F4207D0CE
:101FB0004D4B9F4204D020E0DFE807F00216191DC8
:101FC0008C6834B1012C14BF426102614FF00809E2
:101FD00013E04FF0040910E0CC6804F104090CE0B0
:101FE000CC6804F10C0908E0D1F80C9005E0CC684D
:101FF00004F1080901E04FF0000954460746082D96
:1020000028BF203C28BF04373B680EFA04F609FAC3
:1020100004F4B34323433B60CB79DB064DD52C4C12
:10202000236843F0010323602368274C03F0010376
:10203000A4F57E7C0193019B25F003035CF803B0BB
:102040002A4B984208D02A4B984207D0294B009E31
:10205000984208BF022602E0002600E001260AF0AE
:102060000C03AF080EFA03F406FA03F3164E2BEA3C
:10207000040423434CF827304F68FB03336854BFF4
:1020800023EA020443EA02043460BB03736854BFCA
:1020900023EA020443EA02047460FB02B36854BFFB
:1020A00023EA020443EA0204B460084CBB0223683A
:1020B00054BF23EA02021A4322600AF1040A0135DE
:1020C00055E700BF00140140000401400C0401402A
:1020D0001810024000001110000012100000211022
:1020E00000002210000031100000321000080140F2
:1020F000000C014000100140B0B515494FF47A734F
:102100004A68B2FBF3F20023013AB3EB126F1ED11F
:10211000104CF0256260104AD575A36007230F2884
:10212000236014D813684FF0FF35C3F30223DC1E7D
:1021300083F0070338BF0024042B28BF042305FACB
:1021400003F320EA0303A3401B01D3750860B0BD6D
:102150001000002010E000E00CED00E07CB504462B
:1021600000680268C1684569130700F0868001F4C1
:10217000907605F00105761900F08380D60705D02A
:10218000CE0503D5266C46F001062664560704D515
:102190001DB1266C46F002062664960704D51DB1D3
:1021A000266C46F004062664002B07D501F02003B8
:1021B0005B1903D0236C43F008032364236C002BCA
:1021C00000F0EA80920605D5890603D5204601F085
:1021D0007BFF20684169226C01F0400102F0080297
:1021E000891802BF002020647CBDC16821F4907171
:1021F000C160416921F001014161216B012903D1D5
:10220000C16821F01001C160202184F83E10002136
:1022100021634169490640F1BF80416921F04001D5
:102220004161A06B002800F0B7807249416390F8CB
:102230002110022940F0B1800268704B11689A4267
:1022400021F00E011160116821F0010111606A494D
:1022500000F0AE806A4B9A4200F0AC80694B9A4223
:1022600000F0AA80684B9A4200F0A980674B9A421E
:1022700040F0A8804FF48033ACE0930601D58B0684
:1022800033D4236B012B03D1D30601D5CB0631D434
:10229000130601D50B060BD452067DD549067BD516
:1022A000C16821F04001C160202084F83D0073E046
:1022B00094F83D1021296FD1A168B1F5805F02D15A
:1022C000216900296CD0216A4A1C22620978416088
:1022D000E18C0139E18409045ED1C16821F08001FB
:1022E000C160C16841F040011FE02046BDE87C406C
:1022F00001F0EABE0021019101680191416801915C
:1023000001994169490612D4E18DA28DE38D002B1C
:1023100042D08A4240D0C16821F4907100F0FDFCA7
:1023200000212163C16821F01001C1607CBDA16B57
:102330000A6853689DB27DB3A68DB5422CD2E38561
:102340008B69202B53D0C36823F48073C360436927
:1023500023F001034361436923F0400343612023D9
:1023600084F83E3000232363C36823F01003C36066
:1023700091F82100022835D1106820F00E0010607D
:10238000106820F0010010600120D1E90F2381F8CE
:1023900021009840506027E07CBD042181631DE04E
:1023A000216A31F8022B6FF35F22216242608FE7CE
:1023B00001230FE010230DE04FF480730AE04FF487
:1023C000805307E001F168044FF08073A24208BF18
:1023D0004FF480130B604FF480710184BDE87C40A2
:1023E00001F06DBE04208863002081F82000E08D9C
:1023F0007CBD00BFBF40000804000240080002404E
:102400001C000240300002404400024058000240DC
:102410002DE9F0412B4E0C4696F84E10202904D1A0
:1024200030B196F84C10012905D10220BDE8F081A9
:102430000120BDE8F0814FF000082221C6F850804D
:1024400086F84E100121C6F8408086F84C80B1878E
:102450007568F187B169326A81F4805151EA0207E7
:102460000CBF80460746F08F10B320202946224635
:1024700001F0B2FE10BB5FB1B069B0F5805F0FD064
:1024800008B9306A60B13069406800F07F0009E047
:102490003069002740686FF35F2028F8020B03E0E3
:1024A0003069406807F8010BF08F0138F087DAE7F0
:1024B000202086F84E000020BDE8F0810320BDE812
:1024C000F08100BFC0000020FEE700002DE9F04FC2
:1024D0008FB00D46DFF81015019000200A4605F078
:1024E0000EFD079028460B95FDF751FE4FF0FF318A
:1024F0000C904FF0000A0E91014601380290002026
:102500000A90002005900C98824580F25F820B981B
:10251000BAF1020F10F80A8004DB0B98504410F84F
:1025200002BC06E04FF0000BBAF1010F4FF00002C1
:1025300004D10B980AEB000111F8012C0C980AF158
:1025400001090AF103070AF105048145BABF0B9896
:1025500010F80900002008900C990AF10200099077
:102560008842AFBF4FF0000C0B98099910F801C0DA
:102570000C980AF104018742BABF0B98C55D00258B
:102580000C988142BABF0B9810F801E04FF0000E92
:102590000AF106010C988442BABF0B98065D00262A
:1025A0000C988142BABF0B98405C00200E9B0690AD
:1025B000591C09D1A8F1300153460020CDF838A0AC
:1025C0000A2938BF012005900A9802283ED00A98AF
:1025D000012845D00A98002855D1A8F12101049678
:1025E0002E463D461D2900F2A280CDF80CE096460D
:1025F00062462F463546049E94467246DDF80CE04E
:10260000DFE811F065001E00E401A500650065002B
:102610003901F300F30065006500F3006500A500D3
:102620006500A500A500A500A500A500A500A500C2
:10263000A500A500A500F300A50065006500FF004A
:102640005C2A0BD1BBF15C0F08D024E1B8F1220F5A
:1026500004D15C2A0ED1BBF15C0F0BD0022010E13B
:10266000B8F1270F40F00C815C2A03D1BBF15C0F5D
:1026700040F0068107980B994A460EAB00F0D2F95C
:1026800007900020FDE0A8F121001D2841D8DFE8D7
:1026900010F01E005E009D015E001E001E005E0028
:1026A000AC00AC001E001E00AC001E005E001E0050
:1026B0005E005E005E005E005E005E005E005E002A
:1026C0005E005E00AC005E001E001E00B800B8F1A7
:1026D0002D0F07D1059828B142F02000652800F0A1
:1026E000D18060E0B8F12A0F05D0B8F13C0F0CD0D2
:1026F000B8F12F0F47D10898804508BFBCF13D0FB6
:1027000000F09680B8F12A0F3DD10898804540D15D
:102710004CE0A8F17B0003285DD9B8F15B0F64D0D1
:10272000B8F15E0FD3D0B8F15D0F10D15DE0A8F124
:102730007B00032854D92F463546049EB8F15B0F21
:1027400018BFB8F15D0F50D0B8F15E0FBFD0A2F145
:1027500061001A280CD3A2F141001A2808D3A2F173
:1027600030000A2804D32E2A02D05F2A40F09F802E
:10277000B8F1200F40F08F809A4540F086804FF0EE
:10278000FF300E9087E0B8F12F0F02D108982F2864
:102790000CD0A8F12A0012285ED8012101FA00F01D
:1027A0009249084258D008983D2830D108980B9992
:1027B0008DF8348052468DF8350000208DF83600B3
:1027C00007980EAB00F02EF903210DAA00F068F96E
:1027D0000790CA4656E0DFE800F00802080276E7F4
:1027E000DFE800F00302030271E700F068FA0EABC5
:1027F00000F018F90021ADF8341004218DF8348070
:1028000011E008983D28D1D008983E28CED000206D
:102810000B995246ADF8340007988DF834800EAB12
:1028200000F000F903210DAA00F03AF9079029E021
:102830004FF474100B9952460D9007988DF835801F
:102840008DF834800EAB00F0EDF803210DAA00F0F6
:1028500027F9DDF824A0E9E7B8F12D0F18BFB8F18A
:10286000210FA0D0B8F13D0F3FF49DAFB8F1250F77
:102870003FF499AFCBE75C2A02D1BBF15C0F0AD1E0
:1028800001200A900AF1010A3DE600F018FA0EABA9
:1028900000F0C8F80790DDF80880C245F2D107982B
:1028A000DDE90B120EAB00F0BDF8C246BEE7B8F191
:1028B000200F3FF461AFB8F1610F1AD0B8F1690F82
:1028C0002BD0B8F16F0F52D0B8F16E0FE3D108984A
:1028D000DDF808806F2808BFBCF1740FDDD1202D12
:1028E000DBD100F0ECF90EAB00F09CF803214BA219
:1028F00057E008986E2808BFBCF1640F48D00898CC
:10290000732808BFBCF1200FC5D100F0D8F90EAB79
:1029100000F088F803213DA299E70898732808BFC2
:10292000BCF1200F42D008986E2808BFBCF1200FE0
:1029300044D008986D28AED1DDF80880BCF1700F46
:10294000ABD16F2DA9D1BEF1720FA6D1742EA4D137
:1029500006982028A1D100F0B2F90EAB00F062F881
:10296000234A032100F09CF80790A2468AE70898C2
:10297000DDF80880722808BFBCF1200F7FF48DAF0E
:1029800000F09DF90EAB00F04DF803211DA25EE7AB
:10299000202DB4D100F093F90EAB00F043F80321E1
:1029A0001CA200F07DF80790BA466BE700F087F9AB
:1029B0000EAB00F037F8032110A248E700F07FF9D2
:1029C0000EAB00F02FF803210AA240E7079D00F0AC
:1029D00012FA0146019806F04AFE044600F08FF90B
:1029E00020460FB0BDE8F08FA8A300082300040024
:1029F00091B5000820696E20000000002069732056
:102A000000000000206F7220000000002061732091
:102A10000000000020616E6420000000206E6F74D2
:102A2000200000002DE9FC41054600201C460E4612
:102A300001901868411C2AD01746904227D0391AB5
:102A400001A805F020FB8046206831183A1A40465C
:102A5000FEF711FA98F800000521222812D0272845
:102A600010D0A0F130010A2901D205210AE001218C
:102A7000622807D198F80100222808BF05212728DD
:102A800008BF05212846424600F00AF805464FF0E7
:102A9000FF30206001A803F0B1F82846BDE8FC81B2
:102AA0007CB5044600208DF802101F2115460190C8
:102AB0008DF8030020468DF8011005F0EDF801AE09
:102AC00001460DF10102304606F0A2FD01463046F6
:102AD0002A4606F09DFD05F055F9054600F084F9FB
:102AE00000F034F928467CBDFEE7FEE700F01CB894
:102AF00010B500F089F80A4A06A1044606F036FA35
:102B00004749084A204606F086FA00F0C3F82046F6
:102B100010BD00BF50696B615374644C6962000062
:102B2000B52B000820A6000810B5102006F04CFBBD
:102B3000044600F07BF80021206020462173A1604C
:102B4000217110BD10B5FFF7EFFF3549034A00F0C2
:102B5000CFF900F09FF8204610BD00BF1CA7000869
:102B600010B5FFF7E1FF2E49034A00F0C1F900F06C
:102B700091F8204610BD00BF40A8000810B5FFF72F
:102B8000D3FF2749034A00F0B3F900F083F8204649
:102B900010BD00BFDCA8000810B5FFF7C5FF204935
:102BA000034A00F0A5F900F075F8204610BD00BFFB
:102BB00048A9000810B5FFF7B7FF1949034A00F00C
:102BC00097F900F067F8204610BD00BF94A90008EF
:102BD00010B5FFF7A9FF1249034A00F089F900F088
:102BE00059F8204610BD00BFC0A9000810B5FFF776
:102BF0009BFF0B49034A00F07BF900F04BF820469D
:102C000010BD00BFF4A9000810B5FFF78DFF0449FF
:102C1000044A00F06DF900F03DF8204610BD00BFF9
:102C200095B7000898AA0008FFF77EBF80B504207A
:102C300006F0CAFA0021016080BD000010B5FFF760
:102C4000F5FF04460020002105F07CF80349024608
:102C5000204605F092FA204610BD00BF98B7000844
:102C600028460322FDF7A8BA0322FDF7A5BA0022E1
:102C70000023054606F0BAB930468821FEF722B98E
:102C80003046594620223A2306F0FDBCF42089F84C
:102C90002D007047204604F053BE0246002005F088
:102CA0002EB92846FDF773BA217A0172417A627A09
:102CB00001F0FD0102F002021144417270470798D1
:102CC0000B99524670473C46DDE90D70C168426A77
:102CD000384601F0B6BA2046FDF759BA304604F03E
:102CE00075BF304605F09CB9504606F01DBC4DF846
:102CF00008ED06F03EFC00285DF808EB704728461A
:102D000004F064BF2846314606F002B9781C4146FB
:102D10003246C3B24846FEF795B9C160416921F019
:102D200001014161202184F83E10704747F82800D6
:102D300008F10108704740460321FEF7D9BF284635
:102D400006F0F2BB4846214606F091BC304602F040
:102D500055BF3046494605F063B9394606F0E4BB35
:102D60000646084614460D46FDF711BA414602F0E4
:102D7000E4BD50462146FEF7A9BF0146204605F0B6
:102D80000CBA14460D4606F08EB805460C460846A9
:102D9000314605F0A5B9054620462E2106F008BCAF
:102DA0000546204606F0A6B8D31705F027BA9DF8C9
:102DB000340002287047584606F0B6BB044604F0BB
:102DC0006BBF294606F0B0BB294605F029B91C4661
:102DD00015460E46074605F083B90C4606F063B863
:102DE0002846012106F0FAB8204604F0EFBE284636
:102DF0000421FEF77DBF284604F04EBF706940F005
:102E000004007061706900F00400704700F0FD007C
:102E100008287047FE2031468BF82D007047484641
:102E200021463A4606F0F4BB214606F07DBB21461A
:102E30004FF6FF7201F0D0B930460021002506F0B0
:102E400099B93846FEF78CBF249805F0FDBA38468C
:102E500002F04DBD504605F089BF5046FEF7A6B9B9
:102E6000054608460C46FDF792B95A4606F0F4B8F6
:102E7000B0FA80F040097047594605F0D1B82046B5
:102E800004F080BF4DF808ED204604F0F7FE01790C
:102E9000013101715DF808EB7047204605F0C0B8BC
:102EA000204605F01DB9A91C38463246FDF7E3BFA0
:102EB000584604F08BBE002005F021B8294605F0E5
:102EC0000FB9294606F00FB80246C31720467047CF
:102ED00002462846314606F0BFB802465846294603
:102EE00006F0BAB8284604F014BE2E2106F060BBE6
:102EF000044606F090B87047F8B50C460F490646F0
:102F0000FFF7CEFFD6490546304605F0F3FF0668C9
:102F100000273046394605F0ADF838B1294604F0AF
:102F2000C1FE01370028F4D0012200E00022204633
:102F30000023BDE8F24005F0D5BE00BF39B7000858
:102F4000B0B5C649044605F0D5FFC549FFF728FFCF
:102F50000446284605F078FA24B12046BDE8B04082
:102F600005F072BAB0BD00BF70B53E4EFFF70DFF61
:102F7000FFF7C8FE0146284600F0F6F80146204655
:102F8000BDE8704005F0AABE70B50446FFF74EFEDE
:102F90000546FFF74BFEB149064620462A4606F095
:102FA0003AF8AF4920463246BDE8704006F033B8E3
:102FB000B0B50C461E49FFF75AFE284604F0DAFE6B
:102FC00001462046BDE8B04005F088BE10B50C466D
:102FD000A24905F08FFF05F09BF8FFF775FFBDE8EC
:102FE000104005F07FBE00BFF8B50C4605460068EE
:102FF000F34905F059F89A490646284605F07AFF44
:103000000068314605F036F804F083FD30B107461C
:10301000721C2868EA49FFF7C7FE02E004F0A1FE2F
:10302000074620463946BDE8F84005F057BE00BFC8
:10303000F3B60008F8B5D24EFFF7A7FE0A4F2046B8
:10304000394605F04DF8FFF75DFE0446284639463F
:1030500005F0D4FE014628462246BDE8F84004F0BB
:10306000F7B900BF1EB8000837B700082DE9F04FC8
:1030700085B004463448019104F08CFE3349804603
:10308000204605F037FF324904902046029405F0AF
:1030900031FF0390304D0024DDF80890049821465C
:1030A000006804F0E7FF824603982146006804F0B8
:1030B000E1FFBAF1000F32D0834624B125494046E2
:1030C00004F0AEFF80464846514600F06FFF234FA4
:1030D000064640462946B8473146B8472946B847CC
:1030E0001FA1B84707464846594600F05FFF06460D
:1030F0009BF80800042803D13846FFF765FE074611
:103100003846314604F08CFF80469BF808000428BE
:1031100003D14046FFF758FE80460134BEE711490F
:10312000404604F07DFFFFF749FEE44E029DFFF7A5
:10313000CFFEFFF759FEFFF7E5FD0146019805B008
:10314000BDE8F04F05F0F2BD28B80008DCB7000874
:10315000E2B700084AB500089AB5000821800008C7
:103160003A2000002AB80008B0B50C460B490546C5
:1031700005F0C0FE214604F0B3FF18B1BDE8B04031
:1031800004F0C7BC28464FF0FF3105F027FF04A02C
:10319000214604F0C7F80020B0BD00BFE2B7000828
:1031A0004B65794572726F723A2025730A000000F0
:1031B000B0B50C4634490546204604F0B1FF01463F
:1031C0002846FFF7D1FF01462046BDE8B04005F094
:1031D00085BD00BF70B5054606480C4605F0B4FD38
:1031E0002946064600F058FA20463146BDE87040B0
:1031F00005F086BD7D2B000870B5054606480C46D7
:1032000005F0A2FD2946064600F046FA2046314662
:10321000BDE8704005F074BD992B000870B50A46F2
:1032200019490446104604F07BFF0C49FFF7B8FD2E
:10323000ED490646204605F05DFE04463046FFF7A0
:103240003DFE0146304604F0A3FF2046FFF736FE60
:1032500001462046BDE8704004F09ABFE2B700087E
:10326000DCB7000870B50C4607490546204604F057
:1032700057FF06490646FFF713FE01462846324629
:10328000BDE8704004F0E4B820B80008DCB60008DF
:1032900070B5A2B00A4610490546104604F02EFF4C
:1032A00006460E4805F050FD0DA13246044605F0D5
:1032B000C3FE0DA120462A4605F0BEFE01AD0C4915
:1032C00083222846FDF7D7FD2046294605F0AEFFAC
:1032D00005F04CFD22B070BD9FB70008092C000816
:1032E000406F7468657200004073656C6600000092
:1032F0001CA500082DE9F0418846134904464046C4
:1033000004F0EEFEBB49FFF74BFD064600213046B8
:103310000F4605F03BFF0446874209D23046394646
:1033200005F028FF294604F0BDFC791C0028EED0EA
:10333000A7424FF00002404638BF01220023BDE8FB
:10334000F04105F0CFBC00BF39B7000880B5A949EE
:1033500005F0D0FDBDE8804005F076B8B0B50C466C
:1033600007490546FFF79CFD04F07AFC0146284614
:1033700000F0A6F801462046BDE8B04005F0AEBC1E
:103380001EB8000810B50446FFF758FC99490246DC
:103390002046BDE8104005F03EBE00BFFFF7F2BF7B
:1033A000B0B50C46E049FFF762FC9348294604F0AB
:1033B000A1FD01462046BDE8B04005F08FBC00BF2E
:1033C000F3B6000810B50C4600F09AF8FFF77CFD44
:1033D000BDE8104005F086BCF8B50C46064600680E
:1033E000D14904F061FE07463046394600F068F8DE
:1033F00030B105467A1C3068CB49FFF7D5FC03E0B5
:10340000002004F05BFD054620462946BDE8F84053
:1034100005F064BC2DE9F84F00917749254A8346B1
:103420000020002604F06BFD72490446584605F062
:1034300061FDDFF8ACA3DFF8A493074638463146B8
:1034400005F098FE10B3054626B12046494604F023
:10345000E7FD04465846294600F0A8FD8046287A34
:10346000042804D12046514604F0DAFD04462046E3
:10347000414604F0D5FD0446287A042804D12046AC
:10348000514604F0CDFD04460136D7E70A49FFF75F
:1034900004FDFFF793FCD44DFFF71FFDFFF7A4FCDD
:1034A0005846294605F034FD01460098BDE8F84F1E
:1034B00005F03CBC9CB500089FB50008C9B60008E3
:1034C00010B50C464B4905F015FD214605F052FE9E
:1034D000BDE8104004F01DBBB0B50C4607490546D9
:1034E000204604F0E1FD01462846FFF7E9FF0146CA
:1034F0002046BDE8B04005F0F1BB00BFFAB60008B9
:1035000080B53C4905F0F6FCBDE8804005F03EBEC4
:1035100010B50C46FFF7F4FFFFF7D6FCBDE81040EE
:1035200005F0E0BBB0B50C467F49FFF7A0FB28468D
:1035300004F020FC01462046BDE8B04005F0CEBBBB
:1035400010B50C46A34905F0D5FCA34905F0D2FC03
:1035500004F0DEFDFFF7B8FCBDE8104005F0C2BB8B
:103560002DE9F843814600686F4904F09DFD9949B3
:103570001C4C05464846A04797490646A0471B49AC
:1035800007463046A04706463868294604F072FDD3
:1035900007463068294604F06DFDF7B180461448AF
:1035A00005F0D2FB0646FFF7EDFE1249304605F066
:1035B000A1FC3946044605F0B9FD2046414605F018
:1035C000B5FD6A1CD9F800005749FFF7EDFBB94873
:1035D0003146BDE8F84304F07DBCBDE8F84304F093
:1035E000C0BB00BFF58E0008DCB70008E2B70008DA
:1035F000612B000805B80008A8A3000810B50C4608
:10360000FFF7AEFF01462046BDE8104005F066BB5F
:103610002DE9F84305461CA0884604F0BBFB42494F
:103620000646284600220023002705F0DFFCDFF8CD
:10363000AC912846FFF794FF0446007A01280FD08A
:1036400017B1FFF786FB06462846214600F0AEFC80
:103650000146FFF746FB0646FFF7C6FB013FE8E7DA
:10366000FFF7C2FB5F49FFF73CFBFFF7A7FB5E4E8E
:10367000FFF72EFCFFF7B8FBFFF744FB014640467F
:10368000BDE8F84305F052BB646963745F69746513
:103690006D73285B000000000A464E4905F0BBBC74
:1036A000B0B50C462049FFF7E2FA284604F062FB69
:1036B00001462046BDE8B04005F010BB10B50C46F1
:1036C000444905F017FC444905F014FC04F020FDC2
:1036D000FFF7FAFBBDE8104005F004BBF8B50C4657
:1036E00005460068104904F0DFFC3A4906462846C2
:1036F00005F000FC384905F0FDFB0068314604F098
:10370000B9FC04F006FA30B10746721C2868064975
:10371000FFF74AFB02E004F024FB07462046394647
:10372000BDE8F84005F0DABAF3B600082DE9F84F25
:10373000834625A0009104F02DFB264906465846F5
:1037400005F0D8FB244905F0D5FBDFF89490DFF8AD
:103750008CA0074600243868214604F08BFCF0B1A9
:10376000054624B13046514604F05AFC06465846F8
:10377000294600F01BFC8046287A042802D1FFF776
:10378000E8FA06463046414604F04AFC0646287AE6
:10379000042802D1FFF7DDFA06460134DBE71149C0
:1037A000FFF79FFAFFF70AFB0F4DFFF796FBFFF7B6
:1037B0001BFB5846294605F0ABFB01460098BDE8C7
:1037C000F84F05F0B3BA00BF646963745F6B657945
:1037D00073285B00B2B70008DCB700084AB50008E0
:1037E0009AB500089EB50008C9B6000810B505488E
:1037F0000C4604F09DFA01462046BDE8104005F055
:103800006DBA00BFD12B000880B50F484068FDF7A6
:1038100087FA0E4B0022FCF780FE02460C480B464E
:10382000BDE8804003F07EBD80B507480068FDF725
:1038300077FA064B0022FCF770FE024604480B465E
:10384000BDE8804003F06EBD1C0100200000503F29
:103850007AB1000870B50C460068154904F040FCC8
:1038600030B1417AC9070CBF056800F1100500E0CE
:103870000025A868D5E90623111A73EBE0700DDA6C
:1038800093492E69002004F0F5FA0146D5E90602B5
:10389000801942EBE672C5E9060203E0002004F05D
:1038A0000DFB01462046BDE8704005F017BA00BF89
:1038B00061B60008A8A3000810B505480C4604F03E
:1038C00037FA01462046BDE8104005F007BA00BFB0
:1038D000092C0008B0B50C464249FFF7E1FA43490C
:1038E0000546FFF7DDFA014600202A4603F0D8FD21
:1038F00001462046BDE8B04005F0F0B92DE9F041A1
:103900008CB00C463749384F2046B84737490546F2
:103910002046B847364906462046B8470746287A23
:10392000052810D004281DD1304604F099F9064628
:10393000384604F0B1F90746FFF75DFA397881554A
:1039400004F02CFA47E0304604F08AF98046387AD1
:10395000052826D1787AC0070CBF386807F1100017
:10396000077928E0FFF752FA22D1284604F086F9B9
:1039700021493246054605F02AFB204928463A46A9
:1039800005F025FB6E461EA12D223046FDF773FA89
:103990002846314605F04AFC1648294604F0AAFAA2
:1039A00019E0022806D1384604F05AF9074602E029
:1039B000002111E00027687AC0070CBF2E6805F1CE
:1039C0001006284604F032F902460A48311D01F873
:1039D000087004F0F9F9014620460CB0BDE8F0414A
:1039E00005F07CB904B70008E180000820B80008A1
:1039F00039B70008A8A300081EB8000837B70008A8
:103A00000C000000108101001001070000020D00F1
:103A100019000000005F5F6B6579005F5F76616C85
:103A2000005F5F7365746974656D5F5F000000001F
:103A3000B0B50C4618490546FFF732FA017A042959
:103A400008D003290CD0022913D104F009F9FDF79D
:103A500096FA09E004F020F9002106F053FC05E095
:103A600004F0EEF8FDF783F9FDF7D8FA02460B46AD
:103A700006E00AA004F00EFCFFF7B2F9124B134A5D
:103A80001349002004F0EBF9124902462046BDE834
:103A9000B04004F072BB00BFDCB600085B65727218
:103AA0006F725D20636F6E7665727420746F207024
:103AB000696B615F666C6F617420747970652066F4
:103AC00061696C65642E0000FF69F8C0A583F5FF8D
:103AD000A8A30008F3B7000870B50C461C490546BA
:103AE000FFF7DEF90646007A023803281AD8DFE825
:103AF00000F0021B060C304604F0B2F819E0304624
:103B000004F0CAF804F0E8FB13E0304604F08EF845
:103B1000012810D1707AC0070CBF306806F1100080
:103B200002790EE016A007E0304604F089F8FCF7B1
:103B3000D5FD024605E007A004F0ACFBFFF750F905
:103B40000E4AD3172046BDE8704005F0CBB800BF41
:103B5000DCB6000856616C75654572726F723A206A
:103B6000696E76616C6964206C69746572616C2041
:103B7000666F7220696E742829000000013665C4E2
:103B80005B6572726F725D20636F6E766572742012
:103B9000746F20696E742074797065206661696C39
:103BA00065642E00F0B589B00C461649FFF778F928
:103BB000064603F04CFD054680681349884216D03E
:103BC00001AE12A120223046FDF755F928463146B4
:103BD00005F02CFB3F4F2868394604F081FA03F0CA
:103BE00098FF06462846394605F0E0F903E03046DE
:103BF00003F08FFF06462046314609B0BDE8F0408D
:103C000005F06CB8DCB60008ED2B000808000000D9
:103C10000082010000040A0010000000005F5F69DC
:103C20007465725F5F005F5F7265730070B588B026
:103C30000C461D490546FFF733F9017A052906D0E0
:103C4000042907D104F028F8FCF7A1FA1CE003F0DE
:103C5000EDFF19E001F0FD01082917D104F00EF87D
:103C600012A1064605F03CF980B103F0AFFF6D46A6
:103C700010A11F222846FDF7FEF83046294605F020
:103C8000D5FA144905F01AF9024606E0FFF7A8F83C
:103C900011A003F047FB4FF0FF32D317204608B0C6
:103CA000BDE8704005F01EB8DCB600085F5F6C65CB
:103CB0006E5F5F0008000000008201000004090040
:103CC0000F000000005F5F6C656E5F5F005F5F72FA
:103CD00065730000BFB700085B4572726F725D20AC
:103CE0006C656E3A206172672074797065206E6F22
:103CF0007420737570706F72740D0A002DE9F04FA7
:103D000085B00E465A498246304604F017FA0546F9
:103D100046B158A1304604F0F1F9574905F0EAF8E8
:103D2000064600E00026284605F030FA074653A173
:103D3000304604F0F5F9524C002818BF0446781EAE
:103D4000039000F08A8000264FF000094FF0000831
:103D50000294B84580F270802846414605F00AFA80
:103D6000014600200029049042D0087A431E0B2B04
:103D70002ED8454ADFE803F03610192428062C2CEB
:103D80002C2C2C06084603F079FF034604A82021BA
:103D90003EA205F0A4FC23E0084603F061FFCDE954
:103DA000000104A820213BA207E0084603F048FFD9
:103DB000374ACDE9000104A8202105F090FC0FE06E
:103DC000084603F069FF0BE0504603F0FBFA07E0FA
:103DD000FFF71CF80CD1084603F050FF05F04EF930
:103DE000024628B15046114604F0BCFF834608E065
:103DF0002AA004F04FFA5046012105F0EFF84FF0E9
:103E0000000B04A801F0FAFEBBF1000F11D01EB99F
:103E1000A84803F0C3FF06463046FFF72DF80646D4
:103E20000398804503DA2449FEF75BFF06464FF00E
:103E3000010908F101088CE7B9F1010F07D13046FB
:103E400003F02AFF01460F48029A03F06BFA0EB105
:103E5000FEF744FF05B0BDE8F08F2846002105F0CD
:103E600089F90021224605B0BDE8F04F04F066B89C
:103E700039B700086F707300E2B70008656E640020
:103E800059B30008BAB7000897B6000825700000BB
:103E9000B8B60008256C6C64000000004572726FB3
:103EA000723A2063616E206E6F74207072696E7456
:103EB0002076616C0000000098B500082DE9F04FF5
:103EC00089B0894634A1484604F038F9064633489B
:103ED00003F02EFF824603F0D1FE8046684618218B
:103EE000FCF7F0FF304605F051F903280FD0022807
:103EF00027D001283AD1FEF79FFF03F0B1FE0290D0
:103F0000C017CDE900550124002700212AE0DFF881
:103F100090B030460021D847224CA0470746304693
:103F20000121D847A047054630460221D847A0477F
:103F30000446E817F917CDE90250E517CDE90071FD
:103F400011E0FEF779FF03F08BFE074630460121B2
:103F5000012405F00FF903F083FE0290F917C01752
:103F6000CDE900710390CDE9044501E0002700216F
:103F7000CDE906710C4869462022D8F8004003F0CC
:103F8000D1FF08B1FEF7F9FE4846514609B0BDE839
:103F9000F04F04F0A3BE00BF61780000ED2B0008D5
:103FA00075910008617C000861B600087FB50D4678
:103FB0002549044604F0FAFF2E7A00200390B01E33
:103FC00003280DD8DFE800F0020E192A284603F076
:103FD00047FE034603A81FA20B2105F080FB1BE050
:103FE0001A480CE0284603F02BFE194ACDE90001DF
:103FF00003A80B2105F073FB0EE0FEF7FCFE164A4A
:10400000012E18BF024606F0FD0008280DD12846F3
:1040100003F034FE05F032F8024606E0687AC00785
:104020000CBF286805F11000021D074D20462946E7
:1040300005F012F803A801F0E1FD2046294604F03E
:1040400067FF04B070BD00BFC8B60008A8A3000891
:10405000B8B600082564000097B60008B0B50C4655
:1040600006490546FEF71CFF01462846FFF79EFF5E
:1040700001462046BDE8B04004F058BEDCB600085A
:10408000704700006448416801314160704700BFDB
:104090007047000010B504460648FEF7C5FE08B19B
:1040A000002004E020461F2105F0FCF9013080B219
:1040B00010BD00BFA8A300081F2205F07FBB406A07
:1040C0000021C185C18470477CB5044690F83E004C
:1040D00022281FD1A2682146B2F5805F07D151F88E
:1040E000280F51F8182C9AB32268526809E051F849
:1040F000280F12B92269002AF6D02268526802F00D
:104100007F020270086801300860E08D0138E085A8
:10411000000400D07CBD2068C16821F02001C1608E
:10412000C16821F48071FEF7F8FD216B012917D1D8
:1041300000212163C26822F01002C2600268D20628
:10414000E8D50191016801914068019001987CBD1A
:10415000216849686FF35F2120F8021BA062D4E751
:104160003048844207D03248844204D033488442E5
:10417000204618BF0020B0F8866000F145053F2EAC
:1041800006D300F1460128464022FCF774FE08E001
:10419000711C0022A0F88610014481F84520B0F877
:1041A0008660012000212222E085216484F83E20DF
:1041B0002268D36843F48073D360536943F00103EA
:1041C0005361A085A81984F83C10A062D06840F023
:1041D0002000D0607CBD00BFB0B50F4B1C692568C6
:1041E0000540854204BF0020B0BD1AB15D686D1A5C
:1041F0009542F4D9E068002120F4D070E060606955
:1042000020F001006061202083F84D0083F84C10FD
:1042100083F84E000320B0BDC00000200148FDF728
:104220009DBF00BF2C0100200148FDF797BF00BFD4
:10423000B80100200148FDF791BF00BF44020020F3
:10424000FEE7B0B50244101F03780F2B08D844785E
:1042500004F07F04072C03D14488645C322C01D025
:104260000438F1E70420145C04F00F04A3420ED1DB
:104270001418657805F07F05062D08D164880C4474
:1042800025782D2D03D16478312C08BFB0BD0430C2
:10429000E9E7F0B50C18095C012202EB11124FEAB4
:1042A000111C0021261F071F002F13D43446367817
:1042B000384665783609B24207D1261F071F05F038
:1042C0007F03042BF0D0013116466BB2002B01D4D2
:1042D0006645E7D8C8B2F0BD2DE9F04FE1B04EAF6A
:1042E0008946834640211C4690463846FCF7EAFD45
:1042F0002EA88021FCF7E6FD0EA88021FCF7E2FD48
:10430000607AC00703D12068416819B944E0616947
:1043100000293FD02EAE3046FBF75BFF307894F893
:1043200008A0CDF80CA070B3CA46C146D846DFF845
:1043300020B430462C210027D847044630462A2195
:10434000D847054630463D21D84701060029C8BF59
:10435000241AC8BF0127601C07972906B1F1407FC6
:1043600032D0B1F1007FC34633D0B1F1807F4EAF80
:104370001DBF01210A9101240138C84602BF012452
:1043800000210A912BE000200124079001200A90CF
:10439000002027E004F110004569FEF782FC812827
:1043A00004D3DFF8B40302F0BDFFFEE72EA82946D0
:1043B0002822292305F080F806460028AED1DFF830
:1043C000C40302F0AFFFFEE7002102380024C34619
:1043D00002E00121013800240A914EAFC846D146BF
:1043E000DDF80CA0BAF10E0F08BF013840B20890FA
:1043F000DBE90901496AFFF74CFF05460AF0FE00B8
:104400000C2816D1079880F001000A992140012953
:1044100024D118B30020089CCDE901984FF0000981
:104420000D90002009900020254604900020059062
:1044300069E06B980A99FEF71BFD084000EA040149
:104440000798012980F00100DFD10028DDD0089A0B
:10445000D0B2854240F071810120D6E73046FBF7AB
:1044600096FE812803D3BC4802F05CFFFEE7CDE94D
:1044700001980DF138083146CDF830B0404605F0CE
:1044800007F82C2105F00EF80130089C4FF00009C8
:104490005FFA80FB00200D9000200990002004901E
:1044A00000200590BBF1000F2AD040462C212F465A
:1044B00005F0A3F8054600782A280ED12C4614F8FA
:1044C000010F2A280BD1FEF7B1FB8146A81C0590ED
:1044D000FEF7ACFB3D4609900AE03D460DE00D9825
:1044E0003D4608B1049407E0FEF7A8FB0D90049444
:1044F00030462C2105F081F8089CABF1010BD1E787
:104500004EAFDDF830B00BF108004FF000084FF06F
:10451000000A06950C9068B20B900B98824580F2C9
:104520009C800C9804F0ECFE834618B19BF80900BF
:1045300080072AD4A5EB0A00002140B2A042D8BFD0
:1045400001210A9A114316D0A0424FF000073046CD
:10455000C8BF01272C2105F050F8054607980742EF
:104560003FD0FEF79EFB0138295C4EAF3D2970D14C
:104570000021295462E00D98594604F0D7FDBBF1A3
:10458000000F67D0FEF794FC64E0B9F1000F02D190
:10459000FEF74CFB8146099808B9FEF747FB044635
:1045A0009BF80900594600F0FD008BF809004846C9
:1045B00003F0F3FD00205146CDF87F01CDE95E0008
:1045C0005EA803F0B9FEDBF80C20014600200023B2
:1045D00003F050FC01462046099403F0DEFD089CE0
:1045E00038E04EAF28463D21FEF781FB14D0284627
:1045F0003D2105F002F8B9F1000F07D04846FEF75B
:104600005DFC18B103F085FAFEF790FB30462C21D3
:1046100004F0F3FF0546E5E7B9F1000F0ED0484678
:10462000FEF74CFC50B103F074FA47F828000C98E0
:10463000594604F069FEAAF1010A08E0284603F091
:10464000EFFE0146584603F02BFC47F828B008F16E
:104650000108069D0AF1010A5FE70D98D0B304F046
:1046600095FD02210D9DA0F1010B002690FBF1FAB2
:10467000564521DA2846314604F07CFD03F049FA1C
:1046800007462846594604F075FD03F042FA0446F1
:1046900028463146224604F07FFD284659463A46D0
:1046A00004F07AFD38464EAF03F090FAFEF79CFB1B
:1046B000ABF1010B0136DBE7284804F045FB284944
:1046C0000D9AFEF715FC04980821224603F006FC1B
:1046D000FEF72CFB039EB9F1000F16D0214804F021
:1046E00033FB21494A46FEF703FC2049099A20463C
:1046F00004F091FC05991EA02246002918BF084627
:10470000082103F0EBFBFEF711FBDDE901150E2E8E
:1047100004D11AA003F0EEFBFEF708FB0024444589
:1047200006DA57F82410284603F037FD0134F6E77F
:10473000069840B261B0BDE8F08FF9206A996BB27B
:104740008BF82D00034802F0EDFD0020F1E700BFDB
:10475000A5940008D6B20008D3B10008612B000868
:1047600005B80008452B0008E2B70008DCB70008D0
:104770005F5F6B77617267730000000073656C6642
:104780000000000085B100082DE9F041067EDFF849
:104790003880044600F108059EB1284604F0B0FDBB
:1047A0000746007A012807D094F82E0020B9384631
:1047B0000121424603F0C2FB384603F007FA013EEE
:1047C000EAE7BDE8F08100BF59B300080020704758
:1047D00001480862002070471AFCFFFFBCB5104674
:1047E0005C211446FEF783FA13D000206A46214666
:1047F000CDE9000001AD284601F09EF90146009A7E
:10480000454803F0E1FA0446284601F0F7F920464E
:10481000BCBDFEF760FA01462046BDE8BC4003F08F
:104820007DBA00BF80B5012301F02EF9002080BDC4
:104830006FF479700862002070470020704780B5DF
:10484000002301F021F9002080BD0000B0B5104622
:1048500014460D4602F054FF88B1A0783038C0B23B
:1048600005EB800151F8380FC8B100220A600179C8
:1048700001390171090612D104F078FA0FE02868B5
:10488000214604F053FB08B1286805E0686821461A
:1048900004F04CFB28B16868214604F087FB002037
:1048A000B0BDF420214685F82D0002A002F03AFDAB
:1048B000F5E700BF4E616D654572726F723A206E0A
:1048C000616D652027257327206973206E6F742022
:1048D000646566696E65640A0000000010B50868CA
:1048E00011461C4604F08AFA20B1007A421E18BF15
:1048F000012200E00022C74900232046BDE8104005
:1049000003F0B8BA0020704791F92F20C149002068
:10491000D31703F0AFBA00BFA8A3000870B50868AA
:104920000C46144915460668304603F0F9FBA0B161
:1049300003F02CFA104903F073FBFEF745FA054625
:1049400020680468FEF757FA0A490246204603F039
:1049500095FC65B1FEF7D3F909E0064930462A46D1
:1049600003F08CFC2068017B41F0320101730020D0
:1049700070BD00BFCEB60008A3B500082DE9F04118
:104980000F4611461446054604F0D0FA78B92A4E6F
:104990002146F06804F0CAFA0146F06851B1214698
:1049A00004F02CFA02462846214604F010FB0020B1
:1049B000BDE8F081214604F04DFAA0B38046F068CE
:1049C000214604F0B3FA98B91C48F76803F0B0F92F
:1049D000214603F05AFA014608200872386803F0AD
:1049E000DCFBF068214604F07EFA414604F01EFC30
:1049F000F068A842DBD0214604F000FA064603F036
:104A00003DF9074628462146324604F0E0FA28469A
:104A1000214604F0F3F9417A41F0040141723879FA
:104A200001383871C3E7FE20214687F82D0004A025
:104A300002F078FCBBE700BFC0000020092C000892
:104A40004D6F64756C654E6F74466F756E6445721C
:104A5000726F723A204E6F206D6F64756C65206EB8
:104A6000616D656420272573270D0A00F8B50D4692
:104A700001F108001946144604F03FFC38B107461E
:104A800003F0EEF80646384603F0A0F800E00026F2
:104A900028462146324600F0D3FF0020F8BD10B56D
:104AA00010460C4603F018FC2062002010BDF8B53B
:104AB0000D4601F108001946144604F01EFC48B1E9
:104AC000064603F0CDF80746FEF708F9B7FA87F077
:104AD000420900E001222846214600F0B1FF0020F3
:104AE000F8BD0020704710B50C46D1E90901496AAC
:104AF000405C00F00F00204490F8600018B91046A8
:104B000003F0EAFB2062002010BD10B508681146D2
:104B100004F074F9044602F0FCFF082121720A2116
:104B2000017210BD00207047C86E00210170002086
:104B3000704700002DE9FF4150781C461546782843
:104B40000FD042280FD04F2820D0582809D06228F3
:104B500009D06F281AD0E0BB2878A0F13002D31713
:104B600030E0284628E0FEF79CF8861E01AFC0F131
:104B70000C01BA191046092E88BF0021FCF7A2F9D2
:104B8000FEF791F938460021022217E030208DF817
:104B90000400FEF786F80DF10408861EC0F10B0133
:104BA00008F10107BA191046082E88BF0021FCF74A
:104BB00089F9FEF778F9404600210022FBF721FB36
:104BC00002460B461349204604B0BDE8F04103F00D
:104BD00051B928462E21FEF78AF809D128466521C9
:104BE000FEF785F804D128464521FEF780F80CD061
:104BF0002846002105F086FB0B4606490246204662
:104C000004B0BDE8F04103F02AB9284603F064FB84
:104C1000D6E700BFA8A300082DE9F0479EB089465B
:104C20000CA8402198461646FCF74CF9D9E9090131
:104C3000496AFFF72EFB0021082219900128CDE9CF
:104C40000A11099206ABCDE903216A46CDE90511A7
:104C5000CDE90011CDE9071302920ED0022829D127
:104C600009F1080402A9204604F047FB0F9008A9A7
:104C7000204604F042FB074606E009F1080002A9BD
:104C800004F03BFB00270F90CDF860800C960E9748
:104C9000F7B1387A03288DF8340010D0022817D1E4
:104CA000384602F0DDFFCDE91401FCF77EF9CDE9CD
:104CB00010010DE0CDF860800C96002708E0384622
:104CC00002F0BEFFCDE91001FCF783F9CDE9140134
:104CD0000F9C257ACDF86890032D8DF835500BD0B8
:104CE000022D12D1204602F0BBFFCDE91601FCF7E0
:104CF0005CF9CDE9120108E0204602F0A1FFCDE900
:104D00001201FCF766F9CDE916013078252827D085
:104D10002D2832D02B2842D19DF8340003285BD0B7
:104D2000042857D1032D57D0042D70D100201D9099
:104D3000384602F0B1FF0546204602F0ADFF1DAC3B
:104D400002462946204604F063FC02461898DFF824
:104D5000541403F0D4F81890204600F04FFF77E188
:104D6000FEF725F808BF022D42D0FDF78FFF0FF2A6
:104D7000384002F0D7FA002069E19DF83400012D97
:104D80001FD1032800F09280022839D1DDE91413E5
:104D900000204A42DFF80C1460EB03032EE0717828
:104DA000E9B3692955D03D2967D1212800F08680D3
:104DB0003C2800F087803E2800F08D803D287DD083
:104DC00046E1032818BF032D1AD110AB0FCBFBF718
:104DD0009EFB05E0032D1AD110AB0FCBFBF7F6FAC3
:104DE0000B46DFF8C0130246404603F038F82EE1C8
:104DF00014AB0FCBFCF70EF8DFF8A813404624E104
:104E000014AB0FCB821A404661EB030304E014ABF2
:104E10000FCB121840464B41DFF8881315E12628C6
:104E200000F0BD802A2800F0E1802F2800F0EA8001
:104E30007E2800F0BE803E2800F0C3807C2800F071
:104E4000CB803C2840F0048110AB0FCBFCF745F839
:104E5000BBE0B07873282FD06E2840F0F9809DF821
:104E60003400042808BF042D00F0DD80FDF70EFF9C
:104E70000FF2703003F00EFA7DE720284AD03E286A
:104E800069D02F2873D03C287DD02A2808BF2A2932
:104E900040F0DE801998012840F02D81204602F074
:104EA00038FE1890417A41F01001A9E0DDE91020A8
:104EB000BC4980F0004397E7C9A00C900CA800F013
:104EC0004DFDC5E010AFF0CF294632463B462046A7
:104ED000FCF703F807E010AFF0CF294632463B4617
:104EE0002046FCF715F808B1012211E020462946BA
:104EF00032463B46FBF70BFB02460B46FBF70DFB2E
:104F0000C84AC94BFBF7E9FF0246002818BF012237
:104F1000A44998E06F2900F0BD806E2900F0CA8096
:104F2000612940F09580B0786E2840F09180F0784B
:104F3000642840F08D803079202840F0898014ABBF
:104F40000FCB1A4318BF01220843964918BF01200E
:104F50000240002352E73E297AD1FDF728FF08BF1F
:104F6000022D00F0DD80FDF791FEB14801E72F2909
:104F70006ED1FDF71CFF08BF022D00F0D680FDF7B3
:104F800085FEAC48F5E63C2962D1FDF710FF08BF6D
:104F9000022D00F0CF80FDF779FEA448E9E6FDF789
:104FA00006FF08BF022D00F09A80FDF76FFE9C48B7
:104FB000DFE6022D58D1DDE91601CB437949C24322
:104FC0001CE710AB0FCBFBF7A3FF02460028754987
:104FD000404618BF012237E0FDF7E9FE08BF022D69
:104FE00000F08380FDF752FE8C48C2E61998012834
:104FF0003ED1204602F08DFD1890417A41F0080123
:10500000417225E0DDE912460022002300252046FA
:105010003146FBF798FFB0B3FDF738FE7D4803F04B
:1050200039F9189514E0204602F036FE0446384659
:1050300002F032FE01462046FBF781F8002859496C
:105040000CBF002201224046002302F013FF1890FB
:105050000E9808B102F0BAFD0F9808B102F0B6FD43
:1050600018981EB0BDE8F087FDF710FE6A4880E68C
:105070009DF83400032818BF032D63D110AB0FCB6C
:10508000FBF74BFAACE6DDE9100122463346FBF7AD
:10509000B6FAA5E6B0787228DAD1F0782028D7D110
:1050A00030790028D4D114AB0FCB1943104350EA08
:1050B00001028CE7B0786F28CAD1F0787428C7D184
:1050C00030792028C4D170790028C1D1DDE91601DA
:1050D000002308433349B0FA80F042098EE614AB4E
:1050E0000FCB0B402F49024088E614AB0FCB0B438C
:1050F0002C49024382E69DF8340003282BD0022875
:1051000044D1022D42D11498DDE916130024012266
:1051100000256E1A74EB03063EDA42430135F8E7C8
:1051200014AA07CAFBF75BFB08E014AB0FCBFBF735
:1051300071FE03E014AA07CAFBF732FB0B461949BC
:1051400002465BE614AC1BCCA3FB002503FB01511C
:1051500004FB001350E6022D18D1DDE910A5DDE9AE
:1051600016674FF000094FF07E500024FBF756FF02
:105170000246A01B0B4679EB070010DA5046294681
:10518000FBF7CBF9FBF7F3FD0134EFE7FDF77EFD0D
:10519000294802F0C7F85BE70249D3172EE6014918
:1051A00022E600BFA8A30008547970654572726FAB
:1051B000723A20756E737570706F72746564206FCB
:1051C000706572616E642074797065287329206639
:1051D0006F722025253A2027666C6F6174270A00BC
:1051E0003D3D00004F7065726174696F6E202769E4
:1051F0006E27206973206E6F7420737570706F72E4
:1052000074656420666F72207468697320747970A5
:10521000650A000071B700087AB4000843B40008BA
:1052200064B300088DEDB5A0F7C6B03ED3B3000857
:105230000BB400089BB30008D9B400082DE9F04F67
:105240008BB00F4610462E211C46154604F0B0F9CF
:10525000804600260820CDE90966089004A8CDE91B
:105260000466079007F1080007A904F046F8002833
:1052700000F08C808346D7E90901496A405C102818
:1052800018D29BF80840284602F03AFA40B304F0DE
:10529000FD00082879D1A8783038C0B207EB800427
:1052A000584602F0EBFCA063017901310171FDF772
:1052B000FFFD6AE09BF80900294640F002008BF8E8
:1052C0000900584602F0E1FD5846214602F03AFC3A
:1052D00006469BF80900C00758D0FDF7E9FD55E0E8
:1052E000D7F8009099F80C0000F03201322921D152
:1052F000D9F800002749029402F012FF064602F096
:1053000045FD019002F0C8FC03904FF0000A03AC89
:1053100030462C2104F0C6F882450DDC20462C21B5
:1053200004F05AF9FDF74DFD08B1D7F804900AF1E1
:10533000010AEDE7494605E0019802F047FC3968AB
:10534000029C087B00F01600162804D10868254945
:1053500002F0D4FE81460A2C04BF08208BF8080016
:10536000A8450DD003AA4846294603F0A3FD28B955
:10537000786803AA294603F09DFD08B1414601E083
:10538000484629465A4603F025FE002630460BB013
:10539000BDE8F08FCEB60008B0B50C460FA11046A0
:1053A000154604F0C1F80146206839B10D4903F0F3
:1053B000FDFD2068017B01F0E9010BE0FDF781FDB7
:1053C000024620680749006802F04CFF2068017B14
:1053D00041F0160101730020B0BD00BF246F726957
:1053E00067696E009CB700082DE9FC4788461046A7
:1053F0002E219A46154604F0DBF82C7881460020D1
:105400008DF80700A4F146004FEA700007282ED857
:10541000DFE800F00C2D2D2D152D1E0446A1FDF703
:105420008EFC18B146495046012206E045A1FDF721
:1054300086FC20B1424950460022002312E0434935
:10544000FDF77DFC20B15046BDE8FC4702F036BDBB
:105450003FA1FDF774FC50B1394950464FF0FF327F
:105460004FF0FF3302B0BDE8F04702F003BD2E2C31
:1054700014D108F1080003F043FF0446007AFDF759
:10548000C5FC25D1204602F0F9FB691C074603F054
:10549000B5FC514602F056FB06461BE028462E217D
:1054A00004F067F8D8F8007000B30DF10702384631
:1054B000294603F0FFFC0746C8B9D8F804000DF1EF
:1054C0000702294603F0F6FC074680B9002704E0EE
:1054D00000270026FDF788FCA6B9FE20294688F89B
:1054E0002D00D54801F01EFF002410E0C7B1386838
:1054F000494602F0F5FD20B93846494602F0A4F9C4
:1055000080B106463046514602F01CFB04469DF829
:10551000070010B1384603F029FC2046BDE8FC879F
:105520000027C2E7D8F804004946006802F0D8FD19
:1055300006460028E6D1D0E75472756500000000E9
:10554000A8A3000846616C736500000097B60008C8
:1055500052756E74696D654572726F72000000005D
:1055600010B507480C46086201F1080003F0C8FEB8
:1055700001462068006803F0B1FB002010BD00BFA9
:1055800019FCFFFF002070472DE9F04F99B000246F
:105590008B4640219846164640258DF86340CDE95C
:1055A000164404AF3846FBF78DFCDBF86C10DBF8D3
:1055B0002400CDE914758DF80D40097808288DF880
:1055C0000C100CDBDBF82810496A014411F8071CA9
:1055D00001F07F01132902D14FF0000A01E04FF0E2
:1055E000010A317869B18049304603F09DFF20B946
:1055F0007FA1304603F098FF90B17C4802F0A8FBF1
:105600000BE0DBF82810496AFEF743FE01287AD840
:105610000BF10800414603F070FE0746002574E0D8
:10562000304602F06DF830B1B0783038C0B20BEBD4
:105630008000856B95B9DBF800000DF163023146FF
:1056400003F038FC054648B9DBF804000DF16302AD
:10565000314603F02FFC054600284FD014AA2846F7
:10566000314602F0D9F8814688B9DBF8000014AA67
:10567000314602F0D1F8814648B9DBF8040014AA9B
:10568000314602F0C9F88146002800F08E8099F872
:10569000080001280BD1FDF7BDFB674801F042FE71
:1056A00000274FF00008B9F1000F1DD12DE0103890
:1056B00010F1060F08D8FDF7ADFB54A001F032FE43
:1056C00000274FF000080FE0FDF72EFA0268804631
:1056D0000027584629464B46CDE90067FEF7FCFDFA
:1056E00006469BF82D00D8B1484602F06FFAB8F193
:1056F000000F0AD0404603F039FB06E0FDF78AFBB5
:105700004EA001F00FFE002500272DB19DF863008B
:1057100010B1284603F02AFB384619B0BDE8F08FD7
:1057200003AB284641464A4602F0C2F80746BAF1A2
:10573000000F04D1387A0A2804BF082038729DF877
:105740000D0008B18BF82D00A7B3387A0A2831D1A3
:1057500008203872384602F091FA274914AA044604
:1057600002F05AF88246FDF7DFF9BAF1000F1FD0B8
:10577000214902685346CDE900160646584621469F
:10578000FEF7AAFD9BF82D0040B903AB2046314639
:10579000524602F08DF808B102F018FA304603F0D4
:1057A000E5FA504602F012FA04E04FF0000972E701
:1057B00003F0DCFA11A1284603F0AAFB08B102F0BD
:1057C00069FD1149284603F0B1FB00283FF48CAF76
:1057D0000D49284603F072FB00283FF485AFFF20F7
:1057E0008BF82D0080E700BFFCB60008292C0008CC
:1057F0006F626A65637400005AB600085F5F737970
:10580000734F75740000000079B600085479706514
:105810004572726F723A2027257327206F626A657E
:105820006374206973206E6F742063616C6C6162B5
:105830006C650D0A00000000B0B200084572726F7E
:10584000723A206D6574686F642027257327206E77
:105850006F20666F756E642E0D0A000010B510463D
:105860000C4602F039FD84F82F00002010BD70B501
:1058700001F108050C46284603F042FD064628467D
:1058800003F03EFD0546204631462A4601F008FE5B
:105890000446FDF723FAFDF732FA204670BD0000FA
:1058A0007CB510465C211C461546FDF720FA11D048
:1058B00000206A462946019001AE304600F03CF9CE
:1058C0005E490246204602F01AFB0446FDF73EFA06
:1058D00020467CBD594920462A4602B0BDE87040AA
:1058E00002F00DBBC86E012101700020704710B599
:1058F000044690F8300000B110BDE06A2146FEF782
:10590000DBFBE06A2146FEF7D7FB02F03BFA606260
:1059100010BDB0B500250446C0E90955C0E90055E1
:105920000572FDF783F984F83050E0622562257432
:10593000E5602577C4E90555B0BD10B5044641B111
:10594000E06AFCF7C3FD206018B1FEF7A3FBA0805E
:1059500010BDF22084F8300010BD0000F8B50179C8
:1059600042790446012908BF012A41D0914208D05A
:1059700001F0FE030020022B4CD102F0FE02022AAD
:1059800048D105290CD0042934D1A06802F084F94B
:105990000546E06802F080F90146FDF7D0F939E0EC
:1059A000A568284602F042F9E6680746304602F04C
:1059B0003DF987421AD1284602F038F940420421C5
:1059C00006F1100C05F110034218042A10D06A7A6F
:1059D000D2070CBF2F681F46727A7F5CD2070CBFBC
:1059E00032686246525C01319742EDD0002011E0EE
:1059F00001200FE004F110030FCBFAF788FD0246F7
:105A00000B46FAF78AFD0B4A0B4BFBF766FA0028A8
:105A100018BF01202168C2B2236BB2FA82F0097864
:105A20003D29064918BF42091846002302F022FA10
:105A30002063F8BD8DEDB5A0F7C6B03EA8A3000861
:105A40002DE9F041D0E9098704461546786A18F82F
:105A5000000000F00F002618084602F03DFCB5FAE1
:105A600085F1490986F860100DB1BDE8F081022882
:105A70002062FAD1786A18F8000000F00F0084F86C
:105A80002C00BDE8F08100002DE9FE4FD1E9095757
:105A900082460868994690467E6AA95D01F00F0427
:105AA000017B01F0160BBBF1160F03D10068104902
:105AB00002F024FBAA19611C92F90130B3F1FF3FF7
:105AC00004DC137803F00F038B4201D00432F3E7B8
:105AD0000D23CDE900A74146B9F1000F08BF0F2300
